:100000000C9434000C943E000C943E000C943E0082
:100010000C943E000C943E000C943E000C943E0068
:100020000C943E000C943E000C943E000C943E0058
:100030000C943E000C943E000C943E000C943E0048
:100040000C943E000C943E000C943E000C943E0038
:100050000C943E000C943E000C943E000C943E0028
:100060000C943E000C943E0011241FBECFEFD8E04C
:10007000DEBFCDBF0E944A010C94CF020C94000059
:1000800080E480937C0087E880937A000895ECE711
:10009000F0E09081987F8770892B8083EAE7F0E019
:1000A000808180648083808186FDFDCF809178008F
:1000B000909179000895EF920F931F93CF93DF9360
:1000C000162FC42FD22F092E000CAA0BBB0B880FA2
:1000D000991FAA1FBB1F880F991FAA1FBB1F9C0136
:1000E000AD01220F331F441F551F220F331F441F22
:1000F000551F60E074E284EF90E00E949902CA010B
:10010000B90161507109810991090E94E2010E94BF
:100110004802113019F482E08093C0007093C5004A
:100120006093C40088E18093C100EE2029F0E1ECE7
:10013000F0E0808180688083023029F4E2ECF0E016
:10014000808188608083D11106C0E2ECF0E080817C
:100150008062808307C0D13029F4E2ECF0E0808136
:1001600080638083C63031F4E2ECF0E0808182600D
:10017000808310C0C73031F4E2ECF0E0808184600D
:1001800080830FC0C83031F4E2ECF0E080818660FB
:10019000808307C0C93029F4E2ECF0E080818E60F2
:1001A0008083DF91CF911F910F91EF90089584B5D7
:1001B000836A84BD85B5826085BD0895E0EBF0E07B
:1001C0008081836A8083E1EBF0E0808182608083BC
:1001D0000895DF92EF92FF920F931F93CF93DF93D7
:1001E00000D000D000D0CDB7DEB780E00E9447003D
:1001F00083369240D0F400E010E0EE24E394F12C3A
:100200001FC08FEFE81AF80A80E00E9447009C01A7
:10021000220F331F220F331F220F331F820F931F12
:1002200008511541080F191F05C000E010E0EE2429
:10023000E394F12C80E00E9447008336924008F757
:10024000FA82E982C801B7010E948502072E000CDC
:10025000880B990B0E94E401062F172F282F392FA6
:100260000B831C832D833E832E2D3A81462F5C8188
:100270006D817E8180E090E026960FB6F894DEBF17
:100280000FBECDBFDF91CF911F910F91FF90EF90E7
:10029000DF900895CF93DF9300D000D000D0CDB78A
:1002A000DEB78FEF8AB984B90E94D7000E94DE00C2
:1002B0000E944000EE24E39401E022E048E060E088
:1002C00080E895E20E945B0004EB10E00E94E900E8
:1002D00029833A834B835C836D837E8329813A81B2
:1002E0006B817C818D819E812130310521F40E94BA
:1002F000B30168BDEBCF2330310521F40E94B30177
:1003000067BDE4CF2530310529F40E94B301F8011F
:100310006083DCCF2730310529F40E94B30168BD2A
:1003200067BDD4CF2930310531F40E94B30168BDD7
:10033000F8016083CBCF2B30310531F40E94B3013B
:10034000F801608367BDC2CF2D30310539F40E94BA
:10035000B301F801608367BD68BDB8CFF8011082B2
:1003600017BC18BCB3CF0E94270288F09F5798F0A3
:10037000B92F9927B751B0F0E1F0660F771F881FAA
:10038000991F1AF0BA95C9F714C0B13091F00E94C4
:100390004102B1E008950C944102672F782F88271D
:1003A000B85F39F0B93FCCF3869577956795B395EB
:1003B000D9F73EF490958095709561957F4F8F4F5A
:1003C0009F4F0895E89409C097FB3EF4909580955F
:1003D000709561957F4F8F4F9F4F9923A9F0F92F0B
:1003E00096E9BB279395F695879577956795B79589
:1003F000F111F8CFFAF4BB0F11F460FF1BC06F5F6F
:100400007F4F8F4F9F4F16C0882311F096E911C080
:10041000772321F09EE8872F762F05C0662371F0A1
:1004200096E8862F70E060E02AF09A95660F771FB5
:10043000881FDAF7880F9695879597F9089557FDE5
:100440009058440F551F59F05F3F71F04795880F42
:1004500097FB991F61F09F3F79F0879508951216D9
:1004600013061406551FF2CF4695F1DF08C0161685
:1004700017061806991FF1CF869571056105089436
:100480000895E894BB2766277727CB0197F908954D
:100490000E942702A8F19E57B0F1985160F039F1FF
:1004A000983070F5092E9927660F771F881F991FBE
:1004B0000A94D1F71CC0BB27993F4CF4B111B1E0AD
:1004C000B62B672F782F8827985FB1F708C08695DD
:1004D00077956795B79508F4B1609395C1F7BB0F11
:1004E00030F411F460FF03C06F5F7F4F8F4F3EF415
:1004F00090958095709561957F4F8F4F9F4F089590
:1005000068940C9442020C94410297FB072E16F457
:10051000009407D077FD09D00E94BB0207FC05D0EC
:100520003EF4909581959F4F0895709561957F4F0A
:100530000895A1E21A2EAA1BBB1BFD010DC0AA1F24
:10054000BB1FEE1FFF1FA217B307E407F50720F03C
:10055000A21BB30BE40BF50B661F771F881F991FB7
:100560001A9469F760957095809590959B01AC0100
:10057000BD01CF010895AA1BBB1B51E107C0AA1FF3
:10058000BB1FA617B70710F0A61BB70B881F991F34
:100590005A95A9F780959095BC01CD010895F894DE
:0205A000FFCF8B
:00000001FF
